:100000007A00CB7A00B6802227E5F8D90280263420
:10001000003A02003A000B3A010B3A030B3A040B88
:100020003A050B3A060B3A070B3A080B3A090B3A1A
:100030000A0B3A0B0B3A0C0B3A0D0B3A0E0B3A0F1C
:100040000B3A100B3A110B3A130B3A140B3A150BEF
:100050003A160B3A170B3A180B3A190B3A1A0B3A95
:100060001B0B3A1C0B00E5FA810CD10C110C6C0037
:10007000FFD9027A01D90480FF9D0D0BE5FA7A01C0
:10008000D90280FF95D90681069E0B810C8506D684
:1000900000007A0184027A000D0BE5FE810A490016
:1000A000085600068108D9028404810AD902810217
:1000B0000D0BE5EA703E66D83E64183E647600019A
:1000C000DC3E6479C0D600007044E8D9137A00D9C8
:1000D000168300818116FD28051844E6D913811383
:1000E000760001DD13120000D11511156C00FFD947
:1000F0000F810F9C00C00E810FAC00C044810F9C8B
:1001000000DB20843C183E64760001DC3E6479DB31
:10011000D60000183E64760001DC3E6479DCD6002F
:1001200000842C183E64760001DC3E6479DBD60046
:1001300000183E64760001DC3E6479DDD600008460
:100140000E183E64760001DC3E641515D600008171
:10015000163D01D91681164844E2CFFF77183E6458
:10016000760001DC3E6479C0D60000703E66D90F8F
:100170001C3E649A850F2FD911810FD83E647A01F5
:10018000D902183E64D9048111D90680FEBF8111BD
:10019000D90D7A00D90B70431C870F35BA8111D95C
:1001A0000D7A00D90B704320870F35BA0D0BE5E8A7
:1001B0001800D6FC0268057A00D800D67C026828B0
:1001C00000D6D9027C02682800DAD90480FECBD997
:1001D000157B01DD021C00D6703BFCA2D904811501
:1001E000D90680FE65D9171800D6390017D800D671
:1001F0001800DA390017D800DA8117D90D7A00D93A
:100200000B704318870F35BA8117D90D7A00D90BB7
:10021000704320870F35BA8300C51800D8D9133D25
:1002200001D800D8703BFC8513A2120000D1191828
:1002300000DA2D01D800DA1800D8FC0268057A002F
:10024000D800D811196C00FFD91181119C00C0157C
:100250008111AC00C03681119C00DB02842E111983
:10026000D040CE847A1119D040CE7044E8D90270C3
:1002700040D3D9041840D1D90680232C1840D1D8B6
:1002800040CF7A00D840D11840CF845C1040CEF4E3
:10029000DB261119D040CE11196C00FFD90F810F48
:1002A0009C00DC08810F9C00DD08841178C0D11906
:1002B000840B78DBD11984051119D040CE1840D1B8
:1002C0007440D3A21519D600001840D13D01D84082
:1002D000D11840D14C02405600057A00D840D118C0
:1002E00000DA4E08FF347A000D0BE5F880FEBFD926
:1002F000089E04810884157A01D90280FD527A0192
:10030000D9027A01D90480FD3E80FEA20D0BE5F6EC
:100310007A00D840D1D040CE7A00D90A8609D902D5
:1003200080FD596C00FFD907810A3D01D90A810A75
:10033000AD64E98609D90280FD42F5F70D0BE5FEB3
:100340007800D03BDF841A103BDF6C00FF743BE881
:100350005A7B00DE0000103BDF6C00FF3D01D03B0C
:10036000DF103BDF6C00FFAD0ADD7800D03BDF849F
:10037000247A23D902103BDF6C00FF928102805463
:1003800061744399A27900D60000103BDF6C00FF36
:100390003D01D03BDF103BDF6C00FFAD0AD37C0496
:1003A00000D83BE00D0BE5F4183BE03D01D83BE005
:1003B000183BE04C7D00CF00067C1000D83BE07875
:1003C00000D03BDF843D7A23D908103BDF6C00FF6F
:1003D00092810880540C744380A2D90C810C1200C5
:1003E000199515183BE0D9028010CBD906850C1B56
:1003F00000048506FF0284B0103BDF6C00FF3D0166
:10040000D03BDF103BDF6C00FFAD0ABA7A00D90C9D
:100410007800D03BDF84567A23D908103BDF6C008C
:10042000FF9281088053BB744380A2D90A810A12CB
:100430000019F506810AD90C843C810A120019F4CE
:100440000720810C9E18810A12001A6C00FFD90641
:100450001C44DE13001A6C00FF928106BF04810A5F
:10046000D90C103BDF6C00FF3D01D03BDF103BDFC0
:100470006C00FFAD0AA1810CFE057A008300888123
:100480000C7902D60019810C143BE2D6000C810CC9
:10049000143BE3D6000D810C143BE4D6000E810C16
:1004A000143BE5D6000F7C0218850CDB0012850C8E
:1004B000DB0014810C7B01DE0010810C7900D6007A
:1004C0001B810C7901D6001A810C7903D6001881A2
:1004D0000C7900D60016810C7910D60017183BE075
:1004E000D902800FD1850CDB0004810C8514DE005D
:1004F00006810C85121F0000DE0000810C85121F92
:100500000002DE0002810C0D0B7800D03BDF842D51
:10051000103BDF6C00FF743BE85A1A0000F900043E
:1005200011103BDF6C00FF743BE85A7B00DE0000DB
:100530008414103BDF6C00FF3D01D03BDF103BDF3C
:100540006C00FFAD0ACA0B7800D03BDF842B103B58
:10055000DF6C00FF743BE85A1A0000FE11103BDF0D
:100560006C00FF743BE85A8504DE00008414103BE5
:10057000DF6C00FF3D01D03BDF103BDF6C00FFADC7
:100580000ACC0BE5FA1844DE720008D902810CD9B6
:1005900004800F251844DE14437CD600081844DE7E
:1005A00014437DD600091844DE14437ED6000A1891
:1005B00044DE14437FD6000B0D0BE5C08146D146C7
:1005C0001844DED940704510D844E611464402086C
:1005D000017E103BE56C00FF3D01D03BE5F52510A9
:1005E0003BE46C00FF3D01D03BE4F518103BE36CAD
:1005F00000FF3D01D03BE3F50B103BE26C00FF3DFB
:1006000001D03BE27A00D844E281401200199407FD
:10061000088140120019F40528814072001AD93E61
:100620001200006C00FF3D01853ED30000814012A6
:10063000001A4478080E7881407900D60019830E9C
:100640006E814012001945890E6581401A00104ED6
:100650008900DC814072001AD93E160000D53D9A0F
:100660006C00FF2D01853ED30000113D45080E3F73
:10067000814012001B94081881401200199402084E
:100680008140120019F4011F814012001BF403176E
:1006900081407900D600197880D0431380174978BB
:1006A00014D04509830CF4814012001B6C00FFBD7F
:1006B00004067A04D93B840A814012001B6C00FFB7
:1006C000D93B8140D9397A03853B42E68539D3004D
:1006D0001A814072001BD9371200006C00FF3D01E7
:1006E0008537D3000070437474364235BA814012A6
:1006F00000196C00FF6D0FD93581354D01A60DAF86
:100700007A08490035A60DA781357400E65A1A000B
:1007100000327800D045098305F27A00D844E27AA5
:1007200000D844E07804D043138016BC830B588172
:1007300040120019640F4403080D747A00D844E293
:100740007A00D844E07808D0431380169B830AA728
:1007500070432874364235BA70433074364235BA25
:100760001044E894451B70432474364235BA7043F4
:100770003074364235BA70433474364235BA830D1C
:100780002E1044EA6C00FFD93E1844E2CE0008EE79
:1007900092813E9F1C1844E26C00FFD93C1044EA51
:1007A0006C00FFCE0008E6D93A813C853A5FD84418
:1007B000E21044EB6C00FFD93C1844E26C00FF925D
:1007C000813C9F2C1844E2D90B7A00D909860D741C
:1007D000363E65651044EB6C00FFD90F3E7A007E13
:1007E000922F2FD90D860D87115555810BD844E2D4
:1007F0001044EE8C3F051044EF951B704324743673
:100800004235BA70433074364235BA70434074365C
:100810004235BA830C991844F89800DC13704324CD
:1008200074364235BA70433074364235BA830C7F21
:100830001844FA9800DE1370432474364235BA70B7
:10084000433074364235BA830C65800CF8D90B7A84
:1008500000D9098609743636804EC308001B7043E0
:100860002474364235BA70433074364235BA704318
:100870004474364235BA830C361044F1F4060383CF
:10088000009E1044F194011B70432474364235BA23
:1008900070433074364235BA70434874364235BAC4
:1008A000830C0C70435074364235BA1044FC9408E3
:1008B0001370434C74364235BA704358743642351F
:1008C000BA830BEB7800D044FC1844FED90B7A00B5
:1008D000D9098609743632804E6808000B1844FE28
:1008E0003C0801D844FE84091844FE3C0800D84462
:1008F000FE1844F8D83BDC1844F4D844F8183BDC24
:10090000D844F41844FAD83BDC1844F6D844FA1812
:100910003BDCD844F670435474364235BA830B7DC1
:1009200070436074364235BA800C2AD90B7A00D9EC
:10093000098609743636804DE508001370435C74EF
:10094000364235BA70436874364235BA830B6070EC
:100950004380D9408435814012001995271844FE00
:100960008540FB00041E1844FC8540FB000615185A
:1009700044F48540FB00000C1844F68540FB00025F
:10098000038303B48140720023D94081407444DE64
:100990004FCFFFC2104509643F94020284451844BA
:1009A000FED83BDC7800D03BDF8427183BDCD93A0B
:1009B000103BDF6C00FF743BE85AD938813A853828
:1009C000FB0000038300EF103BDF6C00FF3D01D014
:1009D0003BDF103BDF6C00FFAD0AD070437C743608
:1009E0004235BA1045098D0403830AC370437074FD
:1009F000364235BA7814D045097A28D844E278507E
:100A0000D04508104503D03BDF104507D045031003
:100A10003BDFD04507104502D03BDF104506D045EF
:100A200002103BDFD04506104501D03BDF104505E5
:100A3000D04501103BDFD04505104500D03BDF100D
:100A40004504D04500103BDFD045041045076C003D
:100A5000FF3D01D04507F5251045066C00FF3D011F
:100A6000D04506F5181045056C00FF3D01D0450541
:100A7000F50B1045046C00FF3D01D045041844FC03
:100A8000D83BDC1844FED844FC183BDCD844FE18A4
:100A900044F8D83BDC1844F4D844F8183BDCD8447C
:100AA000F41844FAD83BDC1844F6D844FA183BDC76
:100AB000D844F683097C7A00D9407800D03BDF83A4
:100AC00000997A23D93A103BDF6C00FF92813A807B
:100AD0004D10744399A2120000F5187A23D93810EA
:100AE0003BDF6C00FF928138804CF7744380A2D9C1
:100AF0004084737A23D938103BDF6C00FF92813831
:100B0000804CDF744399A2120000F4074381409E99
:100B1000297A23D936103BDF6C00FF928136804C56
:100B2000C174439AA21200006C00FFD934854013AF
:100B3000001A6C00FF928134BF167A23D932103B21
:100B4000DF6C00FF928132804C98744380A2D940C0
:100B5000103BDF6C00FF3D01D03BDF103BDF6C0042
:100B6000FF4D0AA6FF5C8140FE0B7043787436424D
:100B700035BA83093A8140D844DE78038540D300F2
:100B80001A8540D3001881407900D600168140793B
:100B900004D6001781407900D6001B81401C44FE1A
:100BA000DE000481401C44FCDE000681401C44F44D
:100BB000DE000081401C44F6DE000281407901D64F
:100BC00000198140143BE2D6000C8140143BE3D66F
:100BD000000D8140143BE4D6000E8140143BE5D665
:100BE000000F81407B01DE00108140144503D600D8
:100BF0000B8140144502D6000A8140144501D600FD
:100C0000098140144500D600087A01D90280F973A1
:100C100010450864F04450B500ED7800D03BDF8308
:100C200000C8103BDF6C00FF744510A2120000D01A
:100C30003BDE103BDEF5038300CD103BDEF4010EFE
:100C4000103BDF6C00FF3D01D03BDF83009C103B7D
:100C5000DEF40263103BDF6C00FF744511A212004A
:100C600000F40453103BDF6C00FF744512A2120025
:100C7000006C00FFCE0008E6D938103BDF6C00FFA7
:100C8000744513A21200006C00FFD93681388536F6
:100C90005FD83BDC183BDC4C02185600077C02187E
:100CA000D93A8405183BDCD93A813A8540DB0012F9
:100CB0008540DB00148450103BDF6C00FF7445114D
:100CC000A2120000F502843F103BDF6C00FFD93A0E
:100CD000103BDF6C00FF744511A21200006C00FF96
:100CE000D938813A85383FD03BDF103BDF6C00FFBD
:100CF000D93A1045086C00FFCE0004EE2D05C2C2A3
:100D000092813A4FA6FF1B7810D045091045096C17
:100D100000FF5D02D045097802D045107804D04527
:100D2000117802D045127818D045137A2CD844E2B5
:100D30007860D0450883066D8140D844DE7800D0C5
:100D400043131045098D041281407900D6001978AB
:100D500020D043138010918307551045086C00FF85
:100D6000CE0004EEC2C2D03BDF1844E2D93A103BB9
:100D7000DF6C00FFD938813A85382F2D14D844E232
:100D80001844E29E571045006C00FFD93685401389
:100D900000086C00FF928136FF3F1045016C00FF98
:100DA000D93485401300096C00FF928134FF2A106A
:100DB00045026C00FFD932854013000A6C00FF9297
:100DC0008132FF151045036C00FFD93085401300B8
:100DD0000B6C00FF9281309F038305BA10450964B4
:100DE0001089015681401A00104E89014D814072D0
:100DF000000CD90281401A0010D9048006BB1045AE
:100E0000046C00FFD92E10437C6C00FF92812E4FA2
:100E10000801271045056C00FFD92C10437D6C009C
:100E2000FF92812C4F0801121045066C00FFD92A51
:100E300010437E6C00FF92812A4F0800FD10450789
:100E40006C00FFD92810437F6C00FF9281284F0867
:100E500000E8814014437CD6000C814014437DD6C9
:100E6000000D814014437ED6000E814014437FD68E
:100E7000000F814012001B450800B081401200188D
:100E80006C00FFD925854013001A6C00FFD923811F
:100E90002585232FD127112752D9218540130016EC
:100EA0006C00FFCE0003EED91F8121851F2FD127B3
:100EB0008140720016D91D1200006C00FF1527B288
:100EC0003F851DD300007800B1002709112792B299
:100ED0007A002FD127112752D91B85401300176C98
:100EE00000FFCE0002EED919811B85192FD1278171
:100EF00040720017D9171200006C00FF1527B23F8F
:100F00008517D300008140D91585401300166C0069
:100F1000FFCE0003EED91385401300176C00FFD9F4
:100F200011811385113F8515D300187801D0431323
:100F300081408540170018D6001A81401200196CB4
:100F400000FF6D0FD92E812E4D01A605627A08494A
:100F5000002EA6055A812E7400F65A1A000032108F
:100F60004313640189054881407903D6001978400C
:100F7000D0431381407B00DE00101844E29E131022
:100F800043136C00FF5D02D043131844E2D9028082
:100F9000F5F17A00D844E0800E4E83025A104313D4
:100FA000640189FA3E104509441208FA36104508D2
:100FB00064F04450B500ED7800D03BDF8300C810EA
:100FC0003BDF6C00FF744510A2120000D03BDE1026
:100FD0003BDEF5038300CD103BDEF4010E103BDF5A
:100FE0006C00FF3D01D03BDF83009C103BDEF40230
:100FF00063103BDF6C00FF744511A2120000F40483
:1010000053103BDF6C00FF744512A21200006C000D
:10101000FFCE0008E6D92A103BDF6C00FF744513B1
:10102000A21200006C00FFD928812A85285FD83BD6
:10103000DC183BDC4C02185600077C0218D92C84C3
:1010400005183BDCD92C812C8540DB00128540DB68
:1010500000148450103BDF6C00FF744511A2120095
:1010600000F502843F103BDF6C00FFD92C103BDF02
:101070006C00FF744511A21200006C00FFD92A8198
:101080002C852A3FD03BDF103BDF6C00FFD92C10B2
:1010900045086C00FFCE0004EE2D05C2C292812CE3
:1010A0004FA6FF1B81407903D600198140144500EB
:1010B000D600088140144501D6000981401445023C
:1010C000D6000A8140144503D6000B7A01D902806C
:1010D000F4B17842D0431381407B00DE00107A00E7
:1010E000D844E27A00D844E0800CFD830109104521
:1010F000098D014981401A00109E038303B11844F1
:10110000E23D01D90280F47B7810D043131844E209
:101110009E0B1043136C00FF5D02D04313800CC87C
:1011200081407B01DE001081407908D600198140A2
:101130007900D6001B7811D0450983025E1045095D
:101140008D204810450E6C00FFCE0008E6D92C100B
:10115000450F6C00FFD92A812C852A5F1C44E6A22A
:10116000D844E61844E2D92810450E6C00FFCE00A2
:1011700008E6D92610450F6C00FFD9248126852466
:101180005FD922812885222FD844E21844E29E1B91
:1011900081401200198C10131043136C00FF5D0284
:1011A000D043131844E2D90280F3D810450A6C00EA
:1011B000FFCE0008E6D92C10450B6C00FFD92A8120
:1011C0002C852A3FD83BDC81401A0014483BDCCFF9
:1011D0000005183BDCFE0881401A0014D83BDC8176
:1011E000401C3BDCDE001210431364038902C07A0A
:1011F00000D844E0800BF11043138D20147A00D8FE
:1012000044E081407900D600197814D04509830163
:101210008A1043138D10227A00D844E081407B016C
:10122000DE001081407904D6001981407900D60093
:101230001B7811D045098301621844E09E3B10439E
:10124000138D010781407B00DE001081401A0010E1
:10125000FE1D1844E085404B001256000881401ADC
:101260000012D844E081401C44E0DE00108411816B
:10127000401A0010D844E0840781407B00DE001053
:1012800081407900D6001B1844E4D844E61844E0B5
:101290009E1981401A00109E1281401A00103D28AC
:1012A000D844E27818D045098300F510431364024E
:1012B0008901FC7A28D844E27810D045098300E0FF
:1012C00010431364018901E781407900D600197841
:1012D00010D04313800B118301D51844E29E0818E7
:1012E00044E2D90280F29C1045098D013510431368
:1012F0008D011781407907D6001981407900D60009
:101300001A81407B00DE0010840781407906D600F8
:10131000197A01D90280F26B7810D04313800AC881
:1013200084741043138D011181407905D600198111
:10133000407B00DE00108301761844E24E89016F85
:1013400084541844E29E081844E2D90280F2341012
:1013500045098D011F81407907D600198140790028
:10136000D6001A7A01D90280F2197810D04313807E
:101370000A7684221844E24E8901348419104313FA
:10138000640189012A81407907D6001981407900DA
:10139000D6001A8301197810D045097A28D844E27A
:1013A0007850D045088140120008D0450481401291
:1013B0000009D04505814012000AD045068140123F
:1013C000000BD04507814012000CD045008140122F
:1013D000000DD04501814012000ED045028140121F
:1013E000000FD045037806D044F181401A0004D89C
:1013F00044FC81401A0006D844FE1800DCD844F4AE
:101400001800DED844F681401A0000D844F8814024
:101410001A0002D844FA81401200198D100A78008F
:10142000D0450BD0450A840A7802D0450A7840D0CE
:10143000450B1844E2CE0008EED044EA1844E26CB2
:1014400000FFD044EB7A00D8450C800108927AFF67
:10145000C7D8450C7845D044E87800D044E97800F6
:10146000D044EFD044EE78FFD044F0183BE63D0185
:10147000D83BE6183BE6CE0008EED044EC183BE63D
:101480006C00FFD044ED7A00D844F28000B7927A25
:10149000FFC7D844F270436474364235BA70432CA7
:1014A00074364235BA70433074364235BA84057AA0
:1014B00000D844E20D0B81040BE5F8810E760000A4
:1014C0008602E38110D9087A00D906870270437C2E
:1014D000E3704380870A35BA0D0BE5F87A00D90826
:1014E00084278108850E3B0000D908810E1A000070
:1014F00049000856000681083D01D908810E720096
:1015000002D90E81102D02D9107A01490010CFFFA7
:10151000D18110FD012B810E1A0000D9047A00D967
:1015200002860674363E65658104D9068108390055
:1015300006D908810649000856000681083D01D9F0
:101540000881080D0BE5FA7044E8D9027A14D90431
:1015500080FF870D0BE5F41844EA2D14D908704478
:10156000F4D9027A08D90480FF70D90C810C3D06A9
:10157000D90C927A064F560006810C3D01D90C8198
:101580000C390008D90C9281084F560006810C3D99
:1015900001D90C7044FCD9027A14D90480FF3BD9DC
:1015A0000A810C39000AD90C92810A4F5600068133
:1015B0000C3D01D90C1844E6D90281082D14D90438
:1015C00080FF17D90A810C39000AD90C92810A4F81
:1015D000560006810C3D01D90C810C0D0BE5FC7801
:1015E00000D10511056C00FF850CA2120000951CAE
:1015F00011056C00FF850AA2120000940D0E110562
:101600006C00FF850AA2120000F40A047A00842EFE
:1016100011056C00FF850AA2120000D10411056CAF
:1016200000FF850CA2D90211048502930000047A00
:1016300001840B11056C00FF3D01D10584A50D0B44
:10164000E5F47A00D90A702F14D90C84478112D995
:1016500002810C1A0002D90480FF82F52A811485C8
:101660000C1F0004DE00008114850C1F0006DE0044
:1016700002810A743BB65AD9081A00003D01850858
:10168000DB00007A018413810A3D01D90A810C1A1A
:101690000000D90C810CFEB57A000D0BE5FE7A0036
:1016A000D90284118102743BB65A7B00DE000081AE
:1016B000023D01D90281024D13CFFFE80D0BE5F683
:1016C0007A00D908702F14D90A84288110D9028190
:1016D0000A1A0002D90480FF04F50B8108743BB696
:1016E0005A1A0000841381083D01D908810A1A00A2
:1016F00000D90A810AFED47A000D0BE4FF1681F0AE
:10170000D1F07A1AD91C11F09525184A37D91A1C2C
:101710004A371B0001CE0008EE851ADB0001184A8B
:10172000371A000149001CCF00057A018300E71831
:101730004A37720001D91A1A00006C00FF851ADBC3
:1017400000007A00D9201844E6D91E811E7900D6FF
:101750000000184A371A0001D9EA8300818622D98D
:1017600002703478D90481EA742F925A1A0000D991
:101770000681EA742FC65A1A0000D90881EAC2C24B
:10178000744314A27600008610E38710860AE38073
:10179000285C8622D902800E21D9181C44E6DD027D
:1017A000800E17D91685189A85163F4C020ECF0069
:1017B000067A01D920841D811ED9028622D904808F
:1017C0000DF08622D902800DF1851EA2D91E81EA74
:1017D0003D01D9EA81EAF9001C047A01D92081206F
:1017E0004E89FF79184A37720001D9181A0000D9BA
:1017F0001681EACE0008E6D914811685145F851893
:10180000DB00001844E6D844E41844E6D902800D11
:10181000A9D844E07A000D0BE5EA811CD11C743490
:10182000748610E31844E6D9147A00D916841B8113
:1018300016743BB65A1A0000D90E7A00D90C8614D9
:10184000871035BA81163D01D91681164D13CFFF89
:10185000DE70472AD90280E7E58114D90270345935
:10186000D9048027898114D902800D4E8514A2D90C
:10187000148114D90270343DD9048710860CE38793
:101880000C8606E38027678114D902800D2C85140D
:10189000A2D9148114D902703429D90480274F8128
:1018A00014D902800D148514A2D91470472ED902C0
:1018B000800DD98514DD027B64DD04743409DD06F6
:1018C000D9088021328114D902800CEE8514A2D966
:1018D000148114D9027033EAD9048027118114D9F4
:1018E00002800CD68514A2D914744901860CE386B3
:1018F0000C7433E6803E27080062704901D90280EB
:101900000D8A8514DD027B64DD047433C2DD06D9E3
:10191000088020E38114D902800C9F8514A2D91479
:101920008114D9027033A4D9047A0C1C00D2803EF1
:10193000F7740030A21A0000D9067A0C1C00D2807D
:101940003EE674002EA21A0000D9088026A0811459
:10195000D902800C658514A2D91484188114D90287
:10196000703394D904800C4A8114D902800C4B85C1
:1019700014A2D9148114D902800C3F8514A2D91461
:101980008114D902703379D904704A01D9068026AE
:101990005D8114D902800C228514A2D9148114D936
:1019A00002703373D9048026458114D902800C0A51
:1019B0008514A2D9148114D902703357D904704701
:1019C00034D9068026281844E6D844E41844E6D9D9
:1019D00002800BE6D844E07A010D0BE5F08116D1C8
:1019E00016743474860CE31844E6D91070472AD96B
:1019F0000280E64A70474AD902800BBEFE0D70474E
:101A00004AD90270334FD904800BA770479AD90284
:101A1000800BA7FE0D70479AD90270334FD904800E
:101A20000B907047EAD902800B90FE0D7047EAD9FF
:101A30000270334FD904800B798110D9027033348E
:101A4000D9048025A98110D902800B6E8510A2D9F6
:101A5000108110D902703322D90470474AD9068008
:101A6000258C8110D902800B518510A2D9108110CC
:101A7000D902703315D90470479AD90680256F8131
:101A800010D902800B348510A2D9108110D90270B0
:101A90003305D9047047EAD9068025528110D9024E
:101AA000800B178510A2D9107048E4D902800BDC96
:101AB00074496BDD027B32DD047432E8DD06D9083F
:101AC000801F348110D9027032D5D90470496BD986
:101AD0000680251A8110D902800ADF8510A2D9104C
:101AE0008110D9027032ADD9041848FFD90680247C
:101AF000FD8110D902800AC28510A2D9108110D9A7
:101B00000270323CD9048024E51844E6D844E41835
:101B100044E6D902800AA3D844E07A010D0BE5F02F
:101B20008116D116743474860CE31844E6D910700B
:101B3000472AD90280E5078110D90270320FD904F3
:101B40001848F8D9068024A68110D902800A6B852E
:101B500010A2D9107048FBD902800B3074496BDD9C
:101B6000027B32DD047432E8DD06D908801E8881EC
:101B700010D9027031E3D9041048FA52D9067049DD
:101B80006BD9088024688110D902800A2D8510A2A3
:101B9000D9108110D9027031BED9047048E8D90635
:101BA00080244B8110D902800A108510A2D910819F
:101BB00010D9027031B8D9048024331844E6D844CF
:101BC000E41844E6D9028009F1D844E07A010D0B0B
:101BD000E5F8810ED10E110E95047A01842818447F
:101BE000E6D844E4184A371A0005720004D9028086
:101BF000FACC1C44E6DD027431B4DD04D90680233E
:101C0000EDD844E07A000D0BE4FF0E81F8D1F81115
:101C1000F89522184A37D9221C4A371B0001CE00FA
:101C200008EE8522DB0001184A371A0001FD0A057B
:101C30007A018301A3184A37720001D9221A0000E1
:101C40006C00FF8522DB0000184A371A0001D928F2
:101C50007A00D9261844E6D92481247900D60000D8
:101C600083013D7A238528803BBE744380A2D9F24C
:101C700081F21200198C0F4E862AD902703161D977
:101C80000481F212001B6C00FFD90681F212001AC7
:101C90006C00FFD90881F21A00109E067A2AD9201A
:101CA00084047A20D9208120D90A81F21200198D6A
:101CB00010067A21D91E84047A20D91E811ED90CDF
:101CC00080232B83008F862AD902703100D90481AA
:101CD000F21A0000CE0008EED90681F21A00006C5C
:101CE00000FFD90881F21A0002CE0008EED90A815D
:101CF000F21A00026C00FFD90C81F21A0006D90E0C
:101D000081F21200196C00FF6D0F742F805A1A00B7
:101D100000D91081F212001B6C00FFD91281F2125F
:101D2000001A6C00FFD91481F21A00109E067A2A5C
:101D3000D92084047A20D9208120D91681F212007A
:101D4000198D10067A21D91E84047A20D91E811E8D
:101D5000D918802299862AD90280085ED9201C448D
:101D6000E6DD02800854D91E85209A851E3F4C026C
:101D70000ECF00067A01D926841D8124D902862A35
:101D8000D90480082D862AD90280082E8524A2D95C
:101D90002481283D01D9288128FD0A047A01D92609
:101DA00081264E89FEBD184A37720001D9201A00DB
:101DB00000D91E8128CE0008E6D91C811E851C5F33
:101DC0008520DB00001844E6D844E41844E6D90234
:101DD0008007E7D844E07A000D0BE5FC80F8BD7A77
:101DE00050D90280E7610D0BE5EA1844DE1A0006BF
:101DF000FD252E1844E24E8902871844E67600003D
:101E0000860BE3870B860FE38613743100252A7A4D
:101E100005D9027A04D904860FD90680E2358302F7
:101E2000601844DE1A0006FD0D0A1844E24E8902CD
:101E30005083024D1844DE1A0004D91181119D50BF
:101E4000038302381844DE72001CD84A371043134B
:101E50008D4013184A377900D60000184A377B00A6
:101E6000DE000183021B1043138D0824184A3772C9
:101E70000001D90F1E0000DD0D9A3D01850FDB002A
:101E800000810D4D0ACF01F97820D043138301F171
:101E90001043136402890120184A371200004508D4
:101EA00001161844E6120000F4471B1844E612001D
:101EB00001F445121844E6120002F454091844E6ED
:101EC0001200039420087820D043138301B37804D0
:101ED000D117844611176C00FF1C44E6A2120000C3
:101EE00094201E11176C00FF1C44E6A212000094FF
:101EF0000D0F11176C00FF1C44E6A2120000F40A3B
:101F00001011176C00FF1C44E6A27900D600008473
:101F10001111176C00FF3D01D11711176C00FFADB7
:101F200028B21844E6120004F42F161844E61200F2
:101F300005F50E182EEED9028613D90480F7018418
:101F40001D1844E6720004D9028613D90480F6F005
:101F5000FE0C182E9ED9028613D90480F6E218448E
:101F6000E6120004F42F311844E6120005F4632849
:101F70001844E6120006F4671F1844E6120007F43E
:101F800069161844E6120008F42F0D184A37851315
:101F9000DE00058001188420184A377B00DE00052A
:101FA000184A377901D60000184A378513DE000336
:101FB000184A378515DE0001184A371200009403CD
:101FC000711043136401890090184A371A00011CEC
:101FD00044DE4B0010CF0033184A37720001D90F8E
:101FE0001A00001C44DE2B0010850FDB0000184A8D
:101FF00037720003D90B1C44DE1F0010DD0D1E00DC
:1020000000810DA2850BDB00008408184A377B0095
:10201000DE0001184A371A0001FE3E184A371A003E
:10202000059E0880005D800085842E7810D04313C3
:1020300084271043136C00FF6D016C00FFD9021858
:102040004A371A000512000252742E5C5A1A000018
:1020500082950680002D800055184A3712000094A2
:10206000031F1043138C0819184A371A0003D84469
:10207000E4184A371A0001D844E084057820D04398
:10208000130D0B184A377200051E0000770001DEA1
:102090000000184A371A0005120000F40AE5184A31
:1020A000377200051E0000770001DE00000BE5F02E
:1020B000184A371A000512000052D90B810B9D6394
:1020C0007D7A63A9000B18810B4D238900D3810B06
:1020D0004D23A600E1810B4D2E8900CB8300D781D3
:1020E0000B4D69890088810B4D69A600C9810B9D44
:1020F00074038300C1184A377902D60000184A37A2
:102100001C4A371F0005770002DE00037800D1115A
:10211000840911116C00FF3D01D11111116C00FFF8
:102120001C4A371F0003A2120000F40AE5184A37C0
:10213000D90911116C00FF8509DB0001847D184A63
:10214000377903D60000184A377B00DE0003184AAF
:10215000377B00DE00017A00D902184A371A0005E1
:1021600012000252742E5C5A1A000082844D184AE2
:10217000377901D60000184A371A0005720002D9D3
:1021800002860DD90480F4B8FE057820D0431318D8
:102190004A37850DDE0003184A37850FDE000184BB
:1021A0001A80FEDF83FF09184A377904D6000078C9
:1021B00010D0431384057820D043130D0BE5F47041
:1021C00030EFD90281121200006C00FFD904811295
:1021D0001200016C00FFD90681121200026C00FF90
:1021E000D90881121200036C00FFD90A801DE30D8B
:1021F0000BE5F67A00D90A842F7A00D90280DE1A1C
:10220000D10995247820B100090C810A8510A279A2
:1022100000D600008418810AD9073D01D90A81102F
:102220008507A21509D60000810AA90012CB0D0B63
:10223000E5CA7A01D9357A00D9277A00D92B7A00F4
:10224000D9027A01D90480DDF870472AD90280DDED
:10225000ED184905FE067A01D92184047A00D921B6
:102260008121D93574472A8613E38115D902801656
:10227000C780168E1C00D4803546D800D270472AFD
:10228000D902800407744A01DD027B32DD04743414
:1022900009DD06D90880175F70472ED9028003EC4C
:1022A000744939DD027B32DD04743409DD06D90856
:1022B000801744704907D9027030E1D9047047345F
:1022C000D906801D297449018613E386137433E609
:1022D00080344B08001D70472ED9028003AE74492C
:1022E0009DDD027B32DD04743409DD06D9088017D8
:1022F00006840D70499DD9027030CDD9048002B298
:1023000080E03B80FAD480E0057A00D90280044462
:10231000D915DD138713862DE37A00D9257A00D9E4
:10232000237A00D92983027881293D01D9296D3F7B
:102330004E08010270472AD90280DD02184905FEC5
:10234000067A01D91B84047A00D91B811BD9357AFE
:1023500000D9028003FED915DD1387138631E38788
:1023600031861DE38621744905252A8135FE2770B3
:10237000309BD902871D8613E387138604E38731D8
:102380008613E387138608E37449018613E38713F2
:10239000860CE3801C3C871D8613E387138602E3CB
:1023A0008002B9D915DD138713861DE38135FE122E
:1023B000703088D902871D8613E387138604E38073
:1023C0001C10871D8613E3861374308480335B08EA
:1023D000006487318613E386177400D2252A871399
:1023E0008602E3800276D915DD138713861DE3810B
:1023F00035FE1D70305AD9027400CE8613E3871360
:102400008604E3871D8613E387138608E3801BC2D7
:10241000871D8613E3861374305680330D0800162B
:102420008135FE08703035D902801BA67A01D92B80
:1024300087317000CEE380DEB1D844E21844E24E2A
:1024400008014E812759002B4E8900C31800D23D48
:1024500001D800D2F800D4057A00D800D27A0C1C3A
:1024600000D28033C3740026A21A0000CE0008E612
:10247000D91D7A0C1C00D28033AE740028A2D91B5F
:10248000811D851B5B0000D84A337A0C1C00D2806A
:10249000339674002AA21A0000CE0008E6D9197AF1
:1024A0000C1C00D280338174002CA2D917811985AD
:1024B000175B0000D84A35812B9E14704A33D9022D
:1024C0007A25D90480DEDFD91F7A00D92B841270D7
:1024D0004A33D9027A0DD90480DECBD91F7A00D9CC
:1024E000278135FE2A703015D9027A0C1C00D28063
:1024F000333674002EA21A0000D9047A0C1C00D2C4
:10250000803325740030A21A0000D906801AC37ADD
:1025100000D90280023ED915DD1387138631E38787
:10252000318613E38613872D8031F308005C780031
:10253000D137844E7A23D91F11376C00FF92811F47
:1025400080329F744380A2D844DE7A02D90280E0B0
:10255000691844E29E238135FE1C7044E8D91F703F
:102560002FFAD9021844E2D904801A66811F72003A
:1025700010D90280FC4780DB3911376C00FF3D0128
:10258000D13711376C00FFAD0AAA8731862DE3845D
:102590000F7A01D90280E0221844E29E0380DB1208
:1025A00083FD857A000D0B0081089685068104E87D
:1025B0000B00810485066E81040B85047A0093006C
:1025C000005D930001569300024D93000344930075
:1025D000043B9300053293000629930007209300E3
:1025E00008179300090E93000A0577000B84CF7734
:1025F000000A842B7700098426770008842177005D
:1026000007841C770006841777000584127700047E
:10261000840D770003840877000284037700019A11
:102620002900040BE5FE1838BED902840A81027421
:102630004A3A5A1A00008281022D01D902927A0088
:10264000BFEB0D0BE5FC80FFDB1838C09E0418388B
:10265000C082810AD90280D9B80D0B00E5F4871237
:102660008602E386027438C28030D70800078712DA
:10267000860AE3840C860287128031E48702860A88
:10268000E3870A8606E3810885060D0BE5E08007EF
:10269000688126D902801A3CD9208120720002D993
:1026A0001C1A0000D9083E7A007E922F2FD906749A
:1026B00038E0860AE3860A7438C68030B3860A8713
:1026C0000E252A8108851CDB00008120D91A1A00FA
:1026D00000D9083E7A007E922F2FD9067438E08602
:1026E0000AE3860A7438C68030CA860A870E252A0D
:1026F0008108851ADB00008120D902800A3C8120F4
:10270000D9028008B6D91E811E9E44812072000223
:10271000D9181E00009AD916811E7B3C80305DD9E5
:1027200014811685143F8518DB00008120D9121E04
:1027300000009AD910811E7B3C803084D90E811014
:10274000850E3F8512DB00008120D9028009EB81D4
:10275000200D0B00E5F480D8C4D904DD0287028681
:102760000AE381129E088112870A720000E3870A39
:102770008606E3810885060D0B00E5FE7A00D90286
:10278000810A120000F43A267A0084617A0AB900BC
:10279000020F8108760001DD08850A170000D600C7
:1027A00000810A720001D90A81023D01D902810A21
:1027B0001200009525810A120000522D304D0ACFDB
:1027C0000018810A120000942C10810A1200009453
:1027D0002D08810A120000F42BB27A03B90002041A
:1027E0007A00840981087900D60000810A0D0BE582
:1027F000E47A00D91C8124D91A81269E0A812612E6
:10280000000052D91784047A00D9178117D1198191
:10281000269E0781267955D6000081227439997247
:102820000000E384238124D915760001DD247A0A8F
:10283000851C802FADD9138515130000522D30D97A
:1028400011811385113FD91C8124120000A4300886
:102850008124120000B439CD811AF90024057A00D0
:10286000830165811CAD0005811CAD18057A0083CC
:1028700001568122D9157A3CD9137A3C851C802FC8
:1028800061928113802F5BD9053E7A007E922F2FB3
:10289000D90381158703720000E3812412000044EC
:1028A0003A0801098124720001D9247A00D91C84D4
:1028B000238124D911760001DD247A0A851C802F1A
:1028C00021D90F8511130000522D30D90D810F85AC
:1028D0000D3FD91C8124120000A43008812412006D
:1028E00000B439CD811AF90024057A008300D9811A
:1028F0001CAD0005811CAD3C057A008300CA812215
:10290000D9117600008603E37A3C851C802ED3D94A
:10291000093E7A007E922F2FD9078607870B35BA9A
:1029200081118703720000E38124120000F43A7DD4
:102930008124720001D9247A00D91C84238124D9EE
:102940000F760001DD247A0A851C802E95D90D852D
:102950000F130000522D30D90B810D850B3FD91C70
:102960008124120000A430088124120000B439CD63
:10297000811AF90024047A00844E811CAD0005817F
:102980001CAD3C047A0084408122D90F7600008679
:1029900003E3811CD9093E7A007E922F2FD9078646
:1029A00007870B35BA810F8703720000E381269EEB
:1029B0001581261519D60000812672000785227719
:1029C0000000720000E381240D0BE5E27A00D91CBF
:1029D0007A00D91A860E74395ECE000CE881261270
:1029E0000000444D8900B08126120000F44A1E8187
:1029F00024D90B760001DD248526730001D9261326
:102A00000000850BD30000784AD10D8404785AD198
:102A10000D8126D91E84327A0A851C802DC4D90BDB
:102A20008526130000522D30D909810B85093FD925
:102A30001C8124D907760001DD248526730001D985
:102A4000261300008507D300008126120000A43061
:102A5000088126120000B439BE811EF90026057ACD
:102A60000083010F110DF44A067A01D90B84047A10
:102A700000D90B811CA9000B06811CBC016D057AD5
:102A8000008300EF8128150DD600008128851CDE0B
:102A9000000181268300DC784DD10D8124D90B768D
:102AA0000001DD248526730001D926130000850B63
:102AB000D300008126D91E7A00D91C84327A0A8577
:102AC0001C802D1ED9098526130000522D30D907F0
:102AD000810985073FD91C8124D905760001DD24B1
:102AE0008526730001D9261300008505D3000081D7
:102AF00026120000A430088126120000B439BE81DD
:102B00001EF90026047A00846A811CD909811AC240
:102B1000C2870EA2D90781098507AB000015811C69
:102B2000D905811AC2C28710A2D90381058503BBCA
:102B30000000047A00843C811A85287700015A85B8
:102B40001CDE0000811A3D01D91A7A03B9001A0A65
:102B50008126120000442E89FF41811A9D03047AC8
:102B600000841081247900D600008128150DD6003C
:102B70000081260D0BE5F08116D9028118D9047069
:102B800038F2D90680FE43D918FE057A008300DBAF
:102B90008116D90280FA238516A2D916811812004F
:102BA00000F42F408118720001D918D910860CD971
:102BB000028118D9047038F2D90680FC32D918FE87
:102BC0001D7A008300A58116D90A760001DD1685DD
:102BD00010730001D910130000850AD3000081187A
:102BE000F90010E28118120000942C047A00847B12
:102BF0008118720001D9188116D9028118D9047080
:102C000038FDD90680FDC3D918FE047A00845C81A2
:102C100016D90280F9A48516A2D9168118120000CF
:102C2000F42F3B8118720001D918D910860CD902F3
:102C30008118D9047038FDD90680FBB3D918FE0479
:102C40007A0084278116D90A760001DD1685107373
:102C50000001D910130000850AD30000F5E68118A1
:102C600012000095047A00840281180D0BE5EA74C5
:102C700039958610E3743991860CE3811CFE038339
:102C80000175811C120000F43A0383016A704A7ACC
:102C9000D902811CD904801401FE0383015918381C
:102CA000EA7900D600001838EC7900D60000785593
:102CB000D038F274398D7038F9E37855D038FD7416
:102CC000398D703904E3811CD90280F8ED4C00F095
:102CD000560003830121704A7AD902811CD90480ED
:102CE000F8D0704B6AD902811CD90480FA8CD91CA7
:102CF000FE03830102811C120000F42D0F74398938
:102D0000860CE3811C720001D91C840F811C120007
:102D100000F42B07811C720001D91C8614D9028192
:102D20001CD9047A00D90680FAC5D91CFE03830099
:102D3000C68614870C802AE487147038E0E31838BC
:102D4000EAD902704B6AD9047A0AD90680122B811B
:102D50001C12000095067A01D90A84047A00D90A67
:102D6000810AD838E8FE0383008D704B6A7900D45D
:102D70004B6AD902811CD90480F9FFD91CFE028458
:102D8000761838ECD902704B6AD9047A0AD90680D1
:102D900011E87800D04B6A811C120000951D811C3F
:102DA000120000942C158610D902811CD9047A00D7
:102DB000D90680FA3AD91CFE02843C87107038E4A8
:102DC000E3811C120000952F811C120000942C023C
:102DD0008425811C720001D91C811CD90280F7DA7C
:102DE0004D785600028410704B6AD902811CD904B8
:102DF00080FD82D91CFE000D0BE5FC70396ED902F6
:102E000080FE6A1838EAD838EE1838ECD838F00D59
:102E10000BE5FA810E1A000E850E2B000C3C01A466
:102E20007B07802979D906810CAD3A34810E1A00CE
:102E30000A3C076C7B04802965FE25810E1A000A76
:102E40003C076C7B64802956FE10810E1A000A3CF8
:102E5000076C7D0190802946FE06810C3D01D90C4E
:102E60008106B9000C0481068415810CD904810CFB
:102E70002900067B07802926D902810485022F0DAF
:102E80000BE5E081281A000A3C076C7B0480290EC0
:102E9000FE2581281A000A3C076C7B648028FFFE0F
:102EA0001081281A000A3C076C7D01908028EFFEF3
:102EB000067A01D91684047A00D9168116D91C81A4
:102EC00026120000944D2D8126120000F44A16812E
:102ED0001C9E128126D9127A3A8512BB0001067A0D
:102EE00001D91484047A00D91481261A000129001A
:102EF000148300C57A00D9207A01D91E842A812042
:102F0000D914811EC22D02D9127A18851C8028D2AC
:102F100074392EA28512A2D910811485103B0000AD
:102F2000D920811E3D01D91E811E8526AB0001CE10
:102F30008120D91485281B000C85282B000E3C010C
:102F4000A47B07802858D912811485123F7B078003
:102F5000284CD91A8120D9188120D91085261B0028
:102F60000529001A3D077B07802833D90E7A07858B
:102F7000261F000380286B2D07D90C810E850C3F7E
:102F8000D90A8110850A3FD9208120D9088118D912
:102F900006811ED9047A18851C80284674392EA211
:102FA0008504AAD902810685023B0000928108AF00
:102FB0000681202D07D92081200D0BE5E07038F225
:102FC000D9207038FDD91E7A00D9181838E8FDFFCD
:102FD0000380FE2581261C38E8DE00101838E8FE44
:102FE000057A00830152812012000094550F812040
:102FF000D9028126D90480FE88D91C840F7A3AD957
:10300000028126D90480FE093D0ED91C811E1200C2
:103010000094550F811ED9028126D90480FE62D901
:103020001A84107C012FD9028126D90480FDE23D4B
:1030300007D91A811AB9001C1B81261A000EB90083
:103040001C2E8126D916811A8516BB000E227A0104
:10305000D918841C8126D916811C8516AB000E0C4C
:103060008126D914811A8514BB000E047A01D9185F
:1030700081184E0800AB81261A000E99001C0B81A6
:10308000261A000E49001A08009781261A000EF928
:10309000001C0D81207200077600008614E3840B6B
:1030A000811E7200077600008614E374396A860870
:1030B000E37A3C85261F000480272785263B0002F3
:1030C000D90E3E7A007E922F2FD90C8608870C806D
:1030D000274A81261A0000D90E3E7A007E922F2FB1
:1030E000D90C87088610E38614871035BA81261A12
:1030F000000EF9001C0F87148608E38608871080ED
:10310000262808001881261A000EF9001A138714C1
:103110008608E3860887108026100800047A01D903
:103120001881189E0A7438E48608E3810A840981AC
:10313000267B00DE00107A000D0BE5A08166720090
:1031400002D94A1A0000D94885661B00007B3C80E2
:103150002608D946814885463F854ADB00008166BE
:10316000D9441A00007B3C8026348544DB00008172
:1031700066D9427A008542BB00001F8166D9401A99
:1031800000003D3C8540DB00008166720002D93EB4
:103190001A00002D01853EDB00008166720004D913
:1031A000401A0000D93E85661B00027B3C8025AAA0
:1031B000D93C813E853C3F8540DB00008166D93AA1
:1031C00085661B00027B3C8025D4853ADB000281AA
:1031D00066D9387A008538BB000222816672000207
:1031E000D9361A00003D3C8536DB0000816672004E
:1031F00004D9341A00002D018534DB000081661AE1
:1032000000047B18802553D9083E7A007E922F2F28
:10321000D9068706865EE38166D93685661B00047B
:103220007B188025798536DB00048166D9347A00E5
:103230008534BB0004188166720004D9321A00007C
:103240003D188532DB00008662743A70252A81665B
:1032500072000AD9321A0000D93085661B00087B3B
:103260000C8024F6D92E8130852E3F8532DB00007C
:103270008166720008D92C1A00007B0C80251F85FE
:103280002CDB00008166D92A7A00852ABB0008223F
:103290008166720008D9281A00003D0C8528DB00E1
:1032A00000816672000AD9261A00002D018526DBEE
:1032B000000081661A00062D01D9083E7A007E9230
:1032C0002F2FD9068662870A35BA83008F816672EE
:1032D0000008D9281A00002D018528DB0000927A09
:1032E00000BF18816672000AD9261A00002D0185D8
:1032F00026DB000081667B0BDE000881661A000A6F
:103300003C076C7B04802496FE2581661A000A3CEB
:10331000076C7B64802487FE1081661A000A3C07D4
:103320006C7D0190802477FE067A01D92684047A88
:1033300000D92681661A0008D9247A1885268024A7
:10334000A174392EA28524AA1A0000D9083E7A0059
:103350007E922F2FD9068662870A35BA875E860647
:10336000E38606743A688023D908FF6183008D8163
:10337000661A000A3C076C7B04802422FE258166C5
:103380001A000A3C076C7B64802413FE1081661AC5
:10339000000A3C076C7D0190802403FE067A01D967
:1033A0002884047A00D92881661A0008D9267A1858
:1033B000852880242D74392EA28526AA1A0000D9CA
:1033C000083E7A007E922F2FD9068662870A252A28
:1033D0008166720008D9241A00003D018524DB00B3
:1033E00000FD0C1881667B00DE0008816672000A11
:1033F000D9221A00003D018522DB000081661A00F7
:103400000A3C076C7B04802395FE2581661A000A1E
:103410003C076C7B64802386FE1081661A000A3CA0
:10342000076C7D0190802376FE067A01D9288404FA
:103430007A00D92881661A0008D9267A188528804A
:1034400023A074392EA28526AA1A0000D9083E7A34
:10345000007E922F2FD9068606875E8022CC08FF39
:103460000E8166D924875E8606E3860A743A703533
:10347000BA81088524DB000680F97E743A64865A96
:10348000E381661A000AD9083E7A007E922F2FD96E
:1034900006875A860AE3860E743A64252A860A87C6
:1034A0000680228608000D743A5C8612E38114853A
:1034B0001283044C743A588654E3743A68865EE387
:1034C0007A00D94E81661A000A3C076CD958815897
:1034D000D9083E7A007E922F2FD906860A875E256C
:1034E0002A8606743A54802241080006814E3D0126
:1034F000D94E8158D9083E7A007E922F2FD9068660
:103500000A875E252A743A50865EE3865E870680C7
:10351000230A743A4C8606E3860A8762252A815874
:10352000D90C3E7A007E922F2FD90A860E875E250F
:103530002A860A743A48802237860E743A7035BA61
:10354000860A87068021E3080006814E3D01D94E98
:1035500081587B048022479E2F81587B0480223E25
:10356000D9083E7A007E922F2FD906875A860AE321
:10357000860A743A4880223C860A87068021AB0876
:1035800000067A01D92284047A00D9228158D90808
:103590003E7A007E922F2FD906860A875E252A86DC
:1035A00006743A488021C98122D90C3E7A007E9265
:1035B0002F2FD90A860A870E35BA8662870A35BA4E
:1035C00081587B648021D79E2F81587B648021CED7
:1035D000D9083E7A007E922F2FD906875A860AE3B1
:1035E000860A743A448021CC860A870680213B08EB
:1035F00000067A01D92084047A00D9208158D9089C
:103600003E7A007E922F2FD906860A875E252A866B
:1036100006743A448021598120D90C3E7A007E926A
:103620002F2FD90A860A870E35BA8662870A252A7D
:1036300081587D01908021669E3081587D01908067
:10364000215CD9083E7A007E922F2FD906875A86B0
:103650000AE3860A743A4080215A860A8706802047
:10366000C90800067A01D91E84047A00D91E81583F
:10367000D9083E7A007E922F2FD906860A875E25CA
:103680002A8606743A408020E7811ED90C3E7A00D3
:103690007E922F2FD90A860A870E35BA8662870A4C
:1036A00035BA7A00D952D950844D81587B04802094
:1036B000EDFE1981587B648020E4FE0A81587D016B
:1036C000908020DAFE067A01D91C84047A00D91C85
:1036D0008150D91A8152D9187A18851C8021037417
:1036E000392EA28518AAD916811A85163B0000D951
:1036F0005081523D01D95281528566AB0008AB81A1
:1037000050D91C85661B00062D01D91A811C851A0B
:103710003FD950875E8606E38150D90C3E7A007E01
:10372000922F2FD90A860A870E35BA743A68860A0C
:10373000E3860A8706801FF2080006814E3D01D904
:103740004E8150D9083E7A007E922F2FD90686628C
:10375000870A35BA81668550DE000E8166D91887E2
:103760005E8606E3860A743A4C35BA8606743A3C9D
:1037700080204181088518DB000C743A388606E306
:10378000743A38860AE381661A0004D9103E7A003A
:103790007E922F2FD90E860A870E80207F81661A8F
:1037A0000002D9103E7A007E922F2FD90E860E8706
:1037B0001235BA8606870A80206281661A0000D90F
:1037C0000C3E7A007E922F2FD90A860A870E35BAD0
:1037D00087068654E3743A348606E3860A875825BA
:1037E0002A8606743A30801FA9875E860AE3860A15
:1037F0008706801F41080006814E3D01D94E743A6C
:103800002C8606E38606875E8020118658870A3557
:10381000BA7438E08606E38606743A68801F0B089F
:10382000001C743A348606E37438E0860AE3860A9C
:10383000870E252A86068754801F13080023743AB2
:10384000688606E386067438E0801EDE0800188667
:10385000067438E080200986068754801ED8080048
:1038600006814E3D01D94E7438E08606E3865887BE
:103870000A35BA8166D9167A008516BB00100B810D
:1038800066D90280F735D94C841781661A00109EDC
:103890000C7438E48606E38108D94C84047A00D994
:1038A0004C814CD9087A00D90686068754801E863A
:1038B000080006814E3D01D94E814CD9087A00D9C5
:1038C000068658870A252A814E9E0C743A5C861219
:1038D000E381148512842987548606E3860687547B
:1038E000801E3B08000C743A5C8612E3811485123A
:1038F000840E87548606E387068612E381148512B8
:103900000D0BE5FC743A7C8602E38602743A708003
:103910001F428702703A70E3703A74743A7C35BA89
:10392000743A708602E38102D90446D9028606748D
:103930003A78656581040D0BE5FC810AD9047A00AB
:10394000D9028702703A70E30D0BE5FE842A810AE2
:10395000FE0284378108D902760001DD08850C73E8
:103960000001D90C1300008502D30000810A2D014B
:10397000D90A810E2D01D90E7A00A9000ED07A0045
:10398000B9000E07810C120000F5C381080D0BE58C
:10399000F0811A7B0A801E28D910811A7B0A801DAB
:1039A000DBD91A811C2D01D91C927A00AF0A7A004A
:1039B000B9001C29811A9E258116D90281189E08FA
:1039C00081182D01D90E84047A00D90E810ED904F4
:1039D000811AD906811CD90880FFB4D91681189E96
:1039E000128116D90C760001DD1681103D30850C50
:1039F000D3000081160D0BE59C816EFE057A0083D5
:103A0000057680F3F4816AD96083054B816AD95EBB
:103A1000760001DD6A856E730001D96E13000085A2
:103A20005ED30000816C2D01D96C816C9E0F816E7C
:103A30001200009508816E120000F425CF816C9E63
:103A400007816E120000F503830519816E72000173
:103A5000D96E816AD964816E760001DD6E12000034
:103A600052D95E815EAD53107A64A9005E40815EDA
:103A70007439DA5A1A000032815E4D4189009A8108
:103A80005E4D428900FD7A42A9005E0A815E4D25A5
:103A90008904A28304BA815E4D4889017A815E4D12
:103AA000498901A1815E4D4D8902318304A2815E65
:103AB0004D708902557A70A9005E11815E4D6A8948
:103AC00001BA815E4D6D8901E3830484815E4D7787
:103AD0008902E2815E4D78890353815E4D798903C5
:103AE000AE83046C816AD902816CD90481701A009A
:103AF0000C7439085A1A0000D9067A03D90880FED6
:103B000049D96A816CD95C856A9A290064D95A813D
:103B10005C855A2FD96C83043E816AD902816CD9A5
:103B20000481701A000C7439085A1A0000D9067AF8
:103B3000FFD90880FE14D96A816CD958856A9A2900
:103B40000064D956815885562FD96C830409816A3F
:103B5000D902816CD90481701A00087439165A1A76
:103B60000000D9067A03D90880FDDFD96A816CD9B3
:103B700054856A9A290064D952815485522FD96C90
:103B80008303D4816AD902816CD90481701A000838
:103B90007439165A1A0000D9067AFFD90880FDAA8E
:103BA000D96A816CD950856A9A290064D94E8150AE
:103BB000854E2FD96C83039F816AD902816CD90409
:103BC000703ABFD9068170D90880FE2BD962816214
:103BD0009E09816C290062D96C84047A00D96C81B9
:103BE00062856AA2D96A83036E816AD902816CD91F
:103BF0000481701A0006D9067A02D90880FD90D98E
:103C00006A816CD94C856A9A290064D94A814C85AD
:103C10004A2FD96C830340816AD902816CD904810F
:103C2000701A0004D9067A02D90880FD62D96A8127
:103C30006CD948856A9A290064D946814885462FFF
:103C4000D96C830312816AD902816CD90481701AFC
:103C500000043D0B7B0C801B453D01D9067A02D93F
:103C60000880FD2BD96A816CD944856A9A29006441
:103C7000D942814485422FD96C8302DB816AD90203
:103C8000816CD90481701A000E3D01D9067A03D9DE
:103C90000880FCFBD96A816CD940856A9A29006446
:103CA000D93E8140853E2FD96C8302AB816AD9020F
:103CB000816CD90481701A00083D01D9067A02D9B5
:103CC0000880FCCBD96A816CD93C856A9A2900644A
:103CD000D93A813C853A2FD96C83027B816AD9021B
:103CE000816CD90481701A0002D9067A02D9088041
:103CF000FC9DD96A816CD938856A9A290064D936C5
:103D0000813885362FD96C83024D816AD902816C46
:103D1000D9048170D9327A0C8532BB000407703A1D
:103D2000BCD9348405703AB9D9348134D9067A02C1
:103D3000D90880FC15D96A816CD930856A9A290026
:103D400064D92E8130852E2FD96C83020A816AD9DD
:103D500002816CD90481701A0000D9067A02D90850
:103D600080FC2CD96A816CD92C856A9A290064D987
:103D70002A812C852A2FD96C8301DC816AD90281A2
:103D80006CD90481701A000E3D0785702B000C7BE6
:103D9000078019C6D9067A02D90880FBF2D96A8150
:103DA0006CD928856A9A290064D926812885262F0E
:103DB000D96C8301A2816AD902816CD90481701AFD
:103DC000000CD9067A01D90880FBC4D96A816CD964
:103DD00024856A9A290064D922812485222FD96CEE
:103DE000830174816AD902816CD90481701A000E32
:103DF0003D07D92085701B000C3D067B0780199E6E
:103E0000D91E8120851E2F7B0780194ED9067A0284
:103E1000D90880FB7AD96A816CD91C856A9A2900F5
:103E200064D91A811C851A2FD96C83012A816AD919
:103E300002816CD904703AADD9068170D90880FB33
:103E4000B6D96281629E09816C290062D96C8404B2
:103E50007A00D96C8162856AA2D96A8300F9816A85
:103E6000D902816CD904703AA4D9068170D908802E
:103E7000FB85D96281629E09816C290062D96C84BC
:103E8000047A00D96C8162856AA2D96A8300C881EC
:103E90006AD902816CD90481701A000A7B64801887
:103EA000FDD9067A02D90880FAE5D96A816CD91859
:103EB000856A9A290064D916811885162FD96C83D2
:103EC0000095816AD902816CD90481701A000A3C7C
:103ED000076CD9067AFFD90880FAB4D96A816CD9FF
:103EE00014856A9A290064D912811485122FD96C1D
:103EF0008465816AD902816CD90481701A0010BD71
:103F000000067A01D91084047A00D910811074381F
:103F1000EA5A1A0000D9067AFFD90880FA2CD96A21
:103F2000816CD90E856A9A290064D90C810E850CA2
:103F30002FD96C8422816A760001DD6A7925D6004A
:103F400000816C2D01D96C840E816E720001D96ED6
:103F5000816E120000F5F2816C9E09816E120000E4
:103F60004508FAC6816C9E0E816A7900D6000081F0
:103F70006A29006084027A000D0BE5FC810AD904ED
:103F8000810E9E4A8104D902760001DD04850C73FE
:103F90000001D90C1300008502D300009508810EA2
:103FA0002D01D90EFEDE810C72FFFFD90C1200002C
:103FB000F51C810E2D01D90E9E148104760001DDC1
:103FC000047900D60000810E2D01D90EFEEC810A85
:103FD0000D0BE5F48614D90C8112D902810CD90499
:103FE000703AF8D906800590D90A810A0D0BE5F2DE
:103FF0008618D90E8114D9027C7FFFD9048116D985
:1040000006810ED908800026D90C810C0D0BE5F233
:10401000861AD90E8114D9028116D9048118D906BD
:10402000810ED908800007D90C810C0D0B00E5EA40
:104030007AFFD90E7C0106D910811CD914811CD9B4
:1040400016811E2D01D90C8120D9028122D9048626
:104050000CD906800522D90A7A01D90C810C2D01D0
:10406000D90CAD000E8116760001DD167900D60060
:1040700000840B7A00D902860CD904800D51810A84
:104080000D0BE5F68110D9027C7FFFD9048112D98E
:10409000068114D90880FF960D0B850681049612BF
:1040A0000000F300000C9528F272000177000196E1
:1040B00084EDF5037AFF0B7A00F30000037A010B1D
:1040C0001300006C00FF92F21200006C00FF2F0B37
:1040D0007A000B00E5D8704BEED928812E760000CF
:1040E000861AE37C07B2D91E871A8602E386027419
:1040F0003AE88016E187028624E3871A8602E3877E
:10410000028620E38620743AE88016868128D91832
:1041100087248602E38602743AE48016B981048516
:1041200018DB00008128D91687248602E3860274F2
:104130003AE08016A18602743AE48016558104851F
:1041400016DB00028128D91487248602E3860274D4
:104150003AE080163D81048514DB00048128D912E1
:1041600087208602E38606743AE035BA8602743AFE
:10417000D880166281048512DB000C843C811E7B92
:104180000480161AFE1A811E7B64801611FE0A81B5
:104190001E7D0190801607FE077C016ED9108405F4
:1041A0007C016DD9108110D9047A00D90286248748
:1041B00006252A811E3D01D91E811E7B048015DE45
:1041C000FE1A811E7B648015D5FE0A811E7D01903A
:1041D0008015CBFE077C016ED91084057C016DD95A
:1041E000108110D9047A00D90286028720801546F2
:1041F00008FF8A8128D90E811E2C076C850EDB00F2
:104200000A8128D90C87208602E38104850CDB0013
:104210000E81287B00DE0008845B811E7B048015F4
:104220007DFE19811E7B64801574FE0A811E7D014E
:104230009080156AFE067A01D90A84047A00D90AA8
:1042400081281A0008D9087A18850A8015947439CB
:104250002EA28508AA1A0000D9047A00D902862461
:104260008706252A8128720008D9061A00003D0118
:104270008506DB0000811E7B04801522FE19811E4D
:104280007B64801519FE0A811E7D019080150FFE4A
:10429000067A01D90A84047A00D90A81281A00080A
:1042A000D9087A18850A80153974392EA28508AA8A
:1042B0001A0000D9047A00D9028602872080147679
:1042C00008FF578128D90687208602E38606743ABC
:1042D000D835BA81048506DB000681287B00DE0024
:1042E0001081280D0B00E5FC810A120000F42A1C45
:1042F000810E1E0000770002DE0000810C1FFFFE11
:10430000DE0000810A720001D90A84327A00D904E1
:1043100084137A0A85048014C9390002D904810AF9
:10432000720001D90A810A120000522D30D902AD63
:1043300000058102BD09DB810C8504DE0000810AD5
:104340000D0BE5DE812ED12E812CD922812A6D60C4
:10435000D91681169D200C8116AD207781169D40BF
:1043600042847081329E2181281E0000770002DE87
:1043700000001BFFFED9103E7A007E922F2FD90E2F
:10438000870E861AE383008881281E0000770002CA
:10439000DE00001BFFFED9107A00D90E870E861EA4
:1043A000E3846D81329E1681281E0000770004DEB2
:1043B000000073FFFC760000861AE3845381281EF8
:1043C0000000770004DE000073FFFC760000861E0C
:1043D000E3843D81329E2081281E0000770002DEAA
:1043E00000001BFFFED9103E7A007E922F2FD90EBF
:1043F000870E861AE3841981281E0000770002DEEA
:1044000000001BFFFED9107A00D90E870E861EE32E
:1044100081329E5A743B71860EE3860E871A801392
:104420000908001A812C760001DD2C792DD60000B8
:10443000860E871A801429870E861AE38426812A1D
:104440008F00020E812C760001DD2C792BD6000026
:104450008412812A8F00040C812C760001DD2C79D6
:1044600020D60000871A860EE3870E861EE3812A77
:104470008F000811112EF46F0C812C760001DD2CB9
:104480007930D60000871E860EE3860E743B6D8061
:10449000128C8900098130FE45812C8300D8812A45
:1044A0008F00080A112E94780A112E945805112EA7
:1044B000F4702B812C760001DD2C7930D600008140
:1044C0002CD912760001DD2C112EF458067A58D919
:1044D0001484047A78D91481148512D30000112E23
:1044E00052D91481149D69437A69A9001416811464
:1044F0009D583E8114AD583D81149D622281149DCA
:104500006429843181149D6F1C81149D7023811452
:10451000AD6F2281149D751381149D781484167AD1
:1045200002D91884107A08D918840A7A0AD918840A
:10453000047A10D918871E860EE3870E8602E3815F
:1045400018D906812CD9088130D90A800BC8D92CFA
:10455000112EF4581F8417812212000052D90280B4
:104560000F168522D300008122720001D9228122F8
:10457000F9002CE3812C0D0BE4FBBE7A00C9043A50
:104580008307F41904349D256D19044CD9271A00AA
:10459000002D018527DB0000AD002419044C7200BA
:1045A0000AD9251E0000DD237300018525DB0000EC
:1045B0001904348523D300006C00FFD929840F1916
:1045C0000434D90219044CD904800803D92981295B
:1045D000FDFF1819043A9E0A1D043A7A002FD921CA
:1045E00084047AFFD92181218307A319043A3D016C
:1045F000C9043A8307817A00C9043E1904481200AD
:104600000052D92981299D202F81299D2334812978
:10461000AD204381299D2B1681299D2D0781299D40
:10462000302A843219043E5D01C9043E84331904E2
:104630003E5D02C9043E842919043E5D04C9043E5E
:10464000841F19043E5D08C9043E841519043E5DAB
:1046500010C9043E840B19043E5C1000C9043E845A
:1046600009190448720001C9044819043E8F10005A
:104670008A190448C9042E190448D902710432D990
:104680000471044AD90680FC5DC90448190448999C
:10469000042E0919043E5C0100C9043E19044812A5
:1046A0000000F42E33190448720001C904481904AB
:1046B00048C9042E190448D902710430D904710480
:1046C0004AD90680FC20C90448190430AD000919F4
:1046D000043E5C0200C9043E19043E8F0100177AB3
:1046E00000B90432111D04327A002FC904321904B2
:1046F0003E5D01C9043E19043E8E0100057A00C9E1
:10470000043219043E8F00020819043E6DFBC904EF
:104710003E19043E8F00010819043E6DEFC9043EA6
:10472000862BC90438862BC904421904481200009C
:1047300052D92981299D68147A68A90029078129FD
:104740009D4C2F843F81299D6C15843819043E5D52
:1047500020C9043E190448720001C904488425197F
:10476000043E5D40C9043E190448720001C9044872
:10477000841219043E5C0080C9043E19044872008A
:1047800001C90448190448760001CD04481200000C
:1047900052C90434D92781274D588901447A58A930
:1047A00000271081274D458901EB81274D4789015D
:1047B000D384158127AD62107A78A900270A812752
:1047C000743A745A1A00003219044CD9231A0000A2
:1047D0002D018523DB0000AD002419044C72000A72
:1047E000D9211E0000DD1F7300018521DB000019A7
:1047F0000434851FD300006C00FFD925840F1904F1
:1048000034D90219044CD9048005C4D9258125FD69
:10481000FF1819043A9E0A1D043A7A002FD91D8404
:10482000047AFFD91D811D83056419043A3D01C92D
:10483000043A83054219043E8F00201519044A7278
:104840000002C9044A1AFFFE1D043ADE0000830577
:104850002619043E8F00402719044A720002C90439
:104860004A1AFFFED91B19043AD9133E7A007E92E8
:104870002F2FD911811B8711720000E38304F819CF
:10488000044A720002C9044A1AFFFE1D043ADE00FF
:10489000008304E319044A720002C9044A1AFFFEA5
:1048A000C90438190438FE06703B66C90438190477
:1048B00038C90442841C190442120000F503830124
:1048C0003B190442720001C904421904302D01C988
:1048D0000430190430FEDF19043E8F0200D8830132
:1048E0001B19043E8E0200077A01C90430840E1998
:1048F00004349D700819043E6DEFC9043E71044AEA
:10490000D90219043ED904190442D90619043452B3
:10491000D908190430D90A7A00D90C80FA24C904BC
:10492000428300D819043E5C0400C9043E19043EC9
:104930008E0200077A01C90430840819043E6DEF25
:10494000C9043E71044AD90219043ED9041904422B
:10495000D90619043452D908190430D90A7A01D970
:104960000C80F9DEC90442830092190442760001EA
:10497000CD04421D044A770002CD044A1FFFFED633
:104980000000847819043E8F02000A190430FE05E5
:104990007A01C9043019043E8E0200057A06C90462
:1049A000301904304C0401CF00067C0400C90430E7
:1049B00019043E5C0400C9043E71044AD90219047A
:1049C0003ED904190442D90619043452D9081904ED
:1049D00030D90A800AC2C90442842119044A7200EB
:1049E00002C9044A1AFFFEC9044A19044A720002A5
:1049F000C9044A1AFFFEC9044883037B7A20C9040C
:104A00003C19043E8F0010057A30C9043C19044259
:104A1000290438C904407A00C9042C19043E8F00C7
:104A200010431904349D7806190434FD58071904FD
:104A30003E8E0008281904349D702219043E8F040C
:104A40000023190438120000942B121904381200A4
:104A500000942D09190438120000F4200819042CC0
:104A60003D01C9042C190432290440C904364D0003
:104A7000B501F619043E6D010801EE19043A390436
:104A800036C9043A19042C4E89017219043E6C048B
:104A9000008900871904402D01C9044019043A3DDA
:104AA00001C9043A19044CD9231A00002D018523A9
:104AB000DB0000AD002D19044C72000AD9211E0044
:104AC00000DD1F7300018521DB000019043876002A
:104AD00001CD0438120000851FD300006C00FFD9FF
:104AE000258419190438760001CD043812000052CB
:104AF000D90219044CD9048002D5D92581254DFF4E
:104B00000800FA19043A9E0A1D043A7A002FD91DAA
:104B100084047AFFD91D811D8302731904402D027C
:104B2000C9044019043A3D02C9043A19044CD92178
:104B30001A00002D018521DB0000AD002D19044C69
:104B400072000AD91F1E0000DD1D730001851FDBE6
:104B50000000190438760001CD0438120000851DCC
:104B6000D300006C00FFD9258419190438760001A0
:104B7000CD043812000052D90219044CD904800225
:104B80004ED92581259DFF5D19044CD91B1A0000C3
:104B90002D01851BDB0000AD002D19044C72000AAD
:104BA000D9191E0000DD177300018519DB000019FB
:104BB0000438760001CD04381200008517D30000B8
:104BC0006C00FFD9238419190438760001CD04380C
:104BD00012000052D90219044CD9048001F1D923E2
:104BE0008123FDFF1819043A9E0A1D043A7A002F0A
:104BF000D91584047AFFD915811583019119044CC4
:104C0000D9231A00002D018523DB0000AD002419F3
:104C1000044C72000AD9211E0000DD1F73000185BB
:104C200021DB000019043C851FD300006C00FFD974
:104C300025840F19043CD90219044CD90480018F32
:104C4000D9258125FDFF1819043A9E0A1D043A7AD8
:104C5000002FD91D84047AFFD91D811D83012F19CE
:104C600004362D01C90436FE9419043A390440C9AA
:104C7000043A847519044CD9231A00002D018523A8
:104C8000DB0000AD002D19044C72000AD9211E0072
:104C900000DD1F7300018521DB0000190438760058
:104CA00001CD0438120000851FD300006C00FFD92D
:104CB000258419190438760001CD043812000052F9
:104CC000D90219044CD904800105D9258125FDFF9D
:104CD0001819043A9E0A1D043A7A002FD91D84043B
:104CE0007AFFD91D811D8300A51904402D01C90437
:104CF00040927A004FB5FF7C190436BD006C190450
:104D00003A390436C9043A846119044CD9231A008B
:104D1000002D018523DB0000AD002419044C720036
:104D20000AD9211E0000DD1F7300018521DB000070
:104D300019043C851FD300006C00FFD925840F198E
:104D4000043CD90219044CD904800083D92581255B
:104D5000FDFF1719043A9E0A1D043A7A002FD91D47
:104D600084047AFFD91D811D84241904362D01C9BC
:104D70000436927A00BF92190448760001CD0448A7
:104D800012000052C904344E08F7F819043A0D0B0A
:104D9000E5F4840E811629000CD916810C8514A225
:104DA000D9148112D9028114D9048116D90680B28E
:104DB0007BD90CBD0006810CA90016D8810CBD0062
:104DC000067A01D90A84047A00D90A810A0D0BE512
:104DD000E27C56C3D838C08126D91E7A00851EBB16
:104DE00000020881246C00FF83032981261A000435
:104DF0008E0002057AFF83031B81261A00048F00B0
:104E0000800E81261A00048E0010057AFF830304A9
:104E10008126720004D91C1A00006CFF7F851CDB00
:104E200000008126720004D91A1A00005C01008576
:104E30001ADB000081261A00046D040800BD8126DB
:104E40001A00084E0800B48126743AF8FF4E183A4A
:104E5000FAD90280B1D99E447C0400D9028003941F
:104E60008526DB0008FE138126720004D9181A007B
:104E7000005D048518DB000084778126720004D968
:104E8000181A00005D488518DB000081267D0400AB
:104E9000DE000681267BFFDE000084557C0400D9FD
:104EA000028003508526DB0008FE13812672000471
:104EB000D9181A00005D048518DB000084338126B0
:104EC000720004D9181A00005D088518DB00008103
:104ED000267D0400DE000681261A00048E00400AAA
:104EE00081267D03FFDE0000840781267BFFDE0034
:104EF00000812685261F0008DE000A81261A00048C
:104F00006D048900858124D11981267B00DE000093
:104F100081261A00048F02003E81261A0002D9025F
:104F2000743B7A860CE3870C8604E37A02D9088006
:104F3000B0F7D90EDD0C860C743B768007E0890053
:104F4000168126720004D9171A00005D208517DB30
:104F500000007AFF8301BD81261A0002D90286195A
:104F6000D9047A01D90680B0C39D0116812672004A
:104F700004D9171A00005D208517DB00007AFF8333
:104F8000019281246C00FF83018A81261A00046D3E
:104F9000408900C7812672000AD9181E0000DD165C
:104FA0007300018518DB000081248516D300008181
:104FB000249D0A1681261A0000D91485261F000692
:104FC0007A002F9281144F08014581261E00007A35
:104FD000002FD912812685261F0008DE000A8126AF
:104FE0007B00DE000081261A00048F02003E81262D
:104FF0001A0002D902743B7A860CE3870C8604E31C
:105000007A02D90880B022D90EDD0C860C743B766A
:1050100080070B8900168126720004D9101A00003F
:105020005D208510DB00007AFF8300E881261A00EE
:1050300002D90281261A0008D9048112D90680FDFE
:105040004F4E0800CA8126720004D9101A00005D74
:10505000208510DB00007AFF8300B981261A000A40
:1050600085262B0008D9188126D91685261B00060F
:105070002D018516DB0000812685261F000877009C
:1050800001DE000A8118BD007C81261A00048F020F
:10509000003D81261A0002D902743B7A860CE38710
:1050A0000C8604E37A02D90880AF7ED90EDD0C8627
:1050B0000C743B768006678900158126720004D93E
:1050C000141A00005D208514DB00007AFF844581FE
:1050D000261A0002D90281261A0008D9048118D99B
:1050E0000680FCACFE1F81261A00088524D600002D
:1050F0008126720004D9141A00005D208514DB009B
:10510000007AFF840F81261A00088524D6000081CA
:10511000246C00FF0D0BE5E68720860EE38124D981
:10512000147A00D912860E87128006AA8110D91A25
:105130008124D9107A00D90E8620870E80065387E5
:1051400020860EE3860E743B7E8005D289000581A1
:1051500028BD011D8720860EE3870E8602E3812489
:10516000D9068126D90881282D01D90A80FFA7D91F
:10517000268126D916760001DD26811ABD090A810D
:105180001A2D0A3D61D9188406811A3D30D918813B
:10519000188516D3000081260D0BE5FA810C1C4CF6
:1051A0000EA2484C0ECF0016184C0E39000C3C03D2
:1051B000FF6CFC00D90692184C0E4F5600097A0C71
:1051C000D83BA27A00842B8106D9028002E89E0493
:1051D0007A00841E184C0E8506DEFFFE81067B00D9
:1051E000DEFFFE184C0ED9028002028106D84C0E5A
:1051F0007A010D0BE5F08116FE057A008300F57A41
:1052000000D9068300E581163D016CFFFE3D02D901
:1052100008927A044F56000A7A0CD83BA27A00838F
:1052200000D2184C10FE327A04D902800290D90EB6
:10523000810EFDFF057A008300BA810E3D016CFFEF
:10524000FED90E810E720002D90E810ED84C10D8F4
:105250004C0E810E7B00DEFFFE7A00D910184C0C3C
:10526000D90E8472810E1AFFFED90C8108850EA218
:10527000D90A810C49000ACF0008810E49000ACFE3
:1052800000028447810A72000292810C4F56001F6F
:10529000810A850CDEFFFE810E850ADEFFFE810A93
:1052A000850E1F0000DE0000810E850ADE000081F1
:1052B000109E0C8110850E1F0000DE000084088106
:1052C0000E1A0000D84C0C810E8429810ED9108151
:1052D0000E1A0000D90E810EFE8A8108D90280FEC6
:1052E000B9FE02840D81063D01D90681064D02CF2B
:1052F000FF147A000D0BE5EA811CD90A810AFE0A27
:10530000811ED90280FEED8300E1811EFE0C810A20
:10531000D9028000D87A008300D1811E3D016CFF44
:10532000FE3D02D90E810A1AFFFED9128112290010
:105330000AD90C7A00D916184C0CD9148446811459
:1053400049001256000284408114F900122B810A90
:1053500085141FFFFEDEFFFE81169E0C811685144C
:105360001F0000DE0000840881141A0000D84C0CD5
:10537000810A1AFFFED912840F8114D91681141ADA
:105380000000D9148114FEB6810E850AA2D91081BD
:1053900012490010CF002D811049000ACF0025814D
:1053A000107200029281124F56001581108512DE94
:1053B000FFFE810A8510DEFFFE8110D90280002DDC
:1053C000810A8427811ED90280FE29D910FE047A21
:1053D0000084188110D902810AD904810CD9068071
:1053E000D1C6810AD90280000481100D0BE5FA8133
:1053F0000CD9028102FE02847D7A00D906184C0C79
:10540000D90484158104490002560002840F8104E6
:10541000D90681041A0000D9048104FEE7810285BF
:1054200004DE000081069E0981068502DE000084FC
:10543000058102D84C0C81049E1C81048502FBFF6F
:10544000FE14810285041FFFFEDEFFFE810285043B
:105450001F0000DE000081069E1C81028506FBFF06
:10546000FE14810685021FFFFEDEFFFE8106850217
:105470001F0000DE00000D0BE5FE81082D61927A11
:105480001A4F56000A81082D613D41D902840481DA
:1054900008D90281020D0B00E5FA8112D112703B8E
:1054A00004D902703B84D9048002577A01D9028062
:1054B000D1927A000D0B8104D83BB47A000BE5F849
:1054C000183BB4D906810E1C3BB4A2D908810EBD8D
:1054D00000088108490006CF000E7A00B9000E0CC2
:1054E00081084900065600047AFF840F8108D9021A
:1054F00080FFC3FE04810684027AFF0D0B00E5E6FF
:105500007A00D9168120FE367A00D91A703B10D95C
:1055100012811A85125A1A00009E13811A85125A96
:105520001A0000D90280FFD69E047AFFD916811A8C
:105530003D01D91A811AAD14D381168301838120CC
:105540001A00089E1281201A00048E00800E81200D
:105550001A00048E0100057A0083016581201A007B
:10556000046C008089008F7A00D91281201A00080B
:105570009E1381201A00048E00040A81201E000060
:105580007A002FD91281207B00DE000081201A00D2
:1055900002D9028112D90E7A00D90C870C8604E355
:1055A0007A01D90880AA82D90EDD0C860C743BA83A
:1055B00080016B8900168120720004D9101A000046
:1055C0005D208510DB00007AFF8300F581201A0042
:1055D000048F0002128120720004D9101A00006C9E
:1055E000FE7F8510DB0000812085201F0008DE0083
:1055F0000A7A008300CB81201A00048F0004057A08
:10560000008300BD81201A00048F000112812072E6
:105610000004D9121A00006CFEFF8512DB00008125
:10562000201A000A85202B0008D918812085201F08
:105630000008DE000A7A00A90018057A00830081BC
:1056400081201A00048F02003D81201A0002D90235
:10565000743BA4860CE3870C8604E37A02D90880A5
:10566000A9C7D90EDD0C860C743BA88000B0890058
:10567000158120720004D9101A00005D208510DB0E
:1056800000007AFF843B81201A0002D90281201A8F
:105690000008D9048118D90680A991D91481207BEA
:1056A00000DE00008118F90014047A0084138120C0
:1056B000720004D9101A00005D208510DB00007A0A
:1056C000FF0D0BE5F87A00D908703B10D906810868
:1056D00085065A1A00009E1D810885065A1A000088
:1056E0001A00048F01000E8108743B105A1A000042
:1056F000D90280FE0981083D01D9088108AD14C98D
:105700000D0BE5F48616D90C8114D902810CD9044D
:105710008112D90680EE61D90A810A0D0B00E5FAE3
:10572000D902DD0480035D4E0D0BE5FAD902DD04DC
:105730008003734E0D0BE5FAD902DD048003A54EFC
:105740000D0BE5FAD902DD048003DB4E0D0BE5FA03
:10575000D902DD0480040D4E0D0BE5F2D902DD0403
:10576000860ED906860CD9088005F7810E0D0B0030
:10577000E5FAD902DD0480042D0D0B00E5F2D90213
:10578000DD04860ED906860CD90880023B810E0DF9
:105790000B00E5FAD902DD0480042B0D0B00E5F2C5
:1057A000D902DD04860ED906860CD9088005B3819E
:1057B0000C0D0B00E5FAD902DD048004290D0B0065
:1057C000E5F2D902DD04860ED906860CD9088001DF
:1057D000F7810C0D0B00E5FAD902DD048004070DFA
:1057E0000B00E5FAD9067A00D9027A10D9048104AF
:1057F0002D01AD0023D9049A8F00010881023900E0
:1058000006D9029AC38F4000035C80009281063E55
:10581000890005D9069AFED681020D0BE5FAD90258
:10582000DD048000470D0B00E5FAAF04D9068403C0
:10583000DD06927A00D9029A8F00010881023900B0
:1058400006D9029AC39E089281063ED90684E88151
:10585000020D0B00E5FAD902DD048000A50D0B0056
:10586000E5FAD902DD0480039D0D0B00E5EC7A001A
:10587000D912D914811A1E0000DD0E1E0002DD109F
:10588000811C1E0000DD0A1E0002DD0C7A00D90812
:105890008108D90281089D205A3D01D908810E59FD
:1058A00000109E4F810A59000C9E48810C8F000108
:1058B0000E8114390010D9148112850E7FD91281FE
:1058C0000CC396810A6C8000D906810A8E00010BF8
:1058D000C3590006D90AF2D90C840CC3590006D961
:1058E0000AF25C8000D90C81103ED910810E7ED95D
:1058F0000E849D811A8512DE00008514DE00020DE3
:105900000B00E5F07A00D90ED91085181F00008130
:10591000161A00004FCF004D5E002285181F0002AE
:1059200081161A00024FCF0028D90CDD0885181FF8
:10593000000081161A0000D90ADD06843AD90ADD72
:105940000685181F000281161A0002D90CDD088492
:1059500026D908DD0C85181F000081161A0000D911
:1059600006DD0A8412D906DD0A85181F0002811699
:105970001A0002D908DD0C81065900089E3B8108F7
:105980008F00010E811039000CD910810E850A7F1D
:10599000D90E8108C39681068E000108C3D906F28C
:1059A000D9088409C3D906F25C8000D908810C3E6D
:1059B000D90C810A7ED90A84BE8116850EDE0000CC
:1059C0008510DE00020D0B00E5E481267B00DE0081
:1059D000008128DE0000DD16DD1481244E8900A13F
:1059E0008124F900220A81267B01DE0000830091D8
:1059F000812449002256000A81288522DE00008386
:105A0000007F7A10D91A8116490024C0001981221A
:105A10003E81167ED9168122D91881223ED9228153
:105A20001A2D01D91A84DF8118D9228116C3D916FB
:105A3000811A3D01D91A811ABD00382D01D91A8168
:105A4000223E81167ED9168116290024D91CCE004B
:105A500000811C8E800003CE000181223ED922816C
:105A6000143ED914F29E0A81145D01D914811CD907
:105A70001684C381268514DE000081288516DE0089
:105A8000000D0B0081041A000085069B0000047ABB
:105A900000841181041A000285069B0002047A002A
:105AA00084027A010B00E5FC810AD904850C1B00F5
:105AB000008504BB0000047A018426810A1A0000D4
:105AC000850CBB0000047A008417810AD902850C7A
:105AD0001B000285024B0002CF00047A0184027A87
